{
  "contractName": "DelegateV2",
  "abi": [
    {
      "constant": false,
      "inputs": [
        {
          "name": "num",
          "type": "uint256"
        }
      ],
      "name": "setNumberOfOwners",
      "outputs": [],
      "payable": false,
      "stateMutability": "nonpayable",
      "type": "function"
    },
    {
      "constant": true,
      "inputs": [],
      "name": "getNumberOfOwners",
      "outputs": [
        {
          "name": "",
          "type": "uint256"
        }
      ],
      "payable": false,
      "stateMutability": "view",
      "type": "function"
    }
  ],
  "bytecode": "0x608060405234801561001057600080fd5b506103be806100206000396000f30060806040526004361061004c576000357c0100000000000000000000000000000000000000000000000000000000900463ffffffff168063b85e5b7414610051578063f03cfed11461007c575b600080fd5b34801561005d57600080fd5b506100666100a9565b6040518082815260200191505060405180910390f35b34801561008857600080fd5b506100a76004803603810190808035906020019092919050505061019b565b005b60008060009054906101000a900473ffffffffffffffffffffffffffffffffffffffff1673ffffffffffffffffffffffffffffffffffffffff1663bd02d0f56040518163ffffffff167c010000000000000000000000000000000000000000000000000000000002815260040180807f746f74616c0000000000000000000000000000000000000000000000000000008152506020019050602060405180830381600087803b15801561015b57600080fd5b505af115801561016f573d6000803e3d6000fd5b505050506040513d602081101561018557600080fd5b8101908080519060200190929190505050905090565b6000809054906101000a900473ffffffffffffffffffffffffffffffffffffffff1673ffffffffffffffffffffffffffffffffffffffff166321f8a7216040518163ffffffff167c010000000000000000000000000000000000000000000000000000000002815260040180807f6f776e65720000000000000000000000000000000000000000000000000000008152506020019050602060405180830381600087803b15801561024b57600080fd5b505af115801561025f573d6000803e3d6000fd5b505050506040513d602081101561027557600080fd5b810190808051906020019092919050505073ffffffffffffffffffffffffffffffffffffffff163373ffffffffffffffffffffffffffffffffffffffff161415156102bf57600080fd5b6000809054906101000a900473ffffffffffffffffffffffffffffffffffffffff1673ffffffffffffffffffffffffffffffffffffffff1663e2a4853a826040518263ffffffff167c010000000000000000000000000000000000000000000000000000000002815260040180807f746f74616c000000000000000000000000000000000000000000000000000000815250602001828152602001915050600060405180830381600087803b15801561037757600080fd5b505af115801561038b573d6000803e3d6000fd5b50505050505600a165627a7a72305820b4d96f7ffa432330935dad6b538ae69a2335bb528b7ab8076a65c8925415654d0029",
  "source": "pragma solidity ^0.4.18;\n\nimport \"./DelegateV1.sol\";\nimport \"./StorageState.sol\";\nimport \"./Ownable.sol\";\ncontract DelegateV2 is StorageState {\n  \n\n  modifier onlyOwner() {\n        require(msg.sender == _storage.getAddress(\"owner\"));\n        _;\n    }\n\nfunction setNumberOfOwners(uint num) public   onlyOwner {\n   _storage.setUint(\"total\", num);\n  \n}\nfunction getNumberOfOwners() view public  returns (uint) {\n   return _storage.getUint(\"total\");\n    \n}\n}\n",
  "sourcePath": "/Users/ming/src/ether/truffle/myproject/contracts/DelegateV2.sol",
  "compiler": {
    "name": "solc",
    "version": "0.4.24+commit.e67f0147.Emscripten.clang"
  },
  "schemaVersion": "2.0.1",
  "updatedAt": "2018-08-04T14:01:48.862Z"
}