{
  "contractName": "DelegateV1",
  "abi": [
    {
      "constant": false,
      "inputs": [
        {
          "name": "num",
          "type": "uint256"
        }
      ],
      "name": "setNumberOfOwners",
      "outputs": [],
      "payable": false,
      "stateMutability": "nonpayable",
      "type": "function"
    },
    {
      "constant": true,
      "inputs": [],
      "name": "getNumberOfOwners",
      "outputs": [
        {
          "name": "",
          "type": "uint256"
        }
      ],
      "payable": false,
      "stateMutability": "view",
      "type": "function"
    }
  ],
  "bytecode": "0x608060405234801561001057600080fd5b5061029a806100206000396000f30060806040526004361061004c576000357c0100000000000000000000000000000000000000000000000000000000900463ffffffff168063b85e5b7414610051578063f03cfed11461007c575b600080fd5b34801561005d57600080fd5b506100666100a9565b6040518082815260200191505060405180910390f35b34801561008857600080fd5b506100a76004803603810190808035906020019092919050505061019b565b005b60008060009054906101000a900473ffffffffffffffffffffffffffffffffffffffff1673ffffffffffffffffffffffffffffffffffffffff1663bd02d0f56040518163ffffffff167c010000000000000000000000000000000000000000000000000000000002815260040180807f746f74616c0000000000000000000000000000000000000000000000000000008152506020019050602060405180830381600087803b15801561015b57600080fd5b505af115801561016f573d6000803e3d6000fd5b505050506040513d602081101561018557600080fd5b8101908080519060200190929190505050905090565b6000809054906101000a900473ffffffffffffffffffffffffffffffffffffffff1673ffffffffffffffffffffffffffffffffffffffff1663e2a4853a826040518263ffffffff167c010000000000000000000000000000000000000000000000000000000002815260040180807f746f74616c000000000000000000000000000000000000000000000000000000815250602001828152602001915050600060405180830381600087803b15801561025357600080fd5b505af1158015610267573d6000803e3d6000fd5b50505050505600a165627a7a723058204ca3f7179507d2f5007beebfb4786ea4fe32897605a065e8eb6ae03eec110bff0029",
  "source": "pragma solidity ^0.4.18;\n\nimport \"./SafeMath.sol\";\nimport \"./StorageState.sol\";\n\n\ncontract DelegateV1 is StorageState {\n  using SafeMath for uint256;\n  \nfunction setNumberOfOwners(uint256 num) public {\n   _storage.setUint(\"total\", num);\n  \n}\nfunction getNumberOfOwners() view public  returns (uint256) {\n    return _storage.getUint(\"total\");\n    \n}\n}\n",
  "sourcePath": "/Users/ming/src/ether/truffle/myproject/contracts/DelegateV1.sol",
  "compiler": {
    "name": "solc",
    "version": "0.4.24+commit.e67f0147.Emscripten.clang"
  },
  "schemaVersion": "2.0.1",
  "updatedAt": "2018-08-04T14:01:48.861Z"
}